:100000000C942D010C945E010C945E010C945E0125
:100010000C945E010C945E010C945E010C945E01E4
:100020000C945E010C945E010C945E010C945E01D4
:100030000C945E010C945E010C945E010C945E01C4
:100040000C945E010C945E010C945E010C945E01B4
:100050000C945E010C945E010C945E010C942D05D1
:100060000C945E010C94F7040C94CD040C945E0186
:100070000C945E010C945E010C945E010C945E0184
:100080000C945E010C945E010C945E010C945E0174
:100090000C945E010C945E010C945E010C94770547
:1000A0000C945E010C945E010C945E010C945E0154
:1000B0000C945E010C945E010C945E010C945E0144
:1000C0000C945E010C945E010C945E010C945E0134
:1000D0000C945E010C945E010C945E010C945E0124
:1000E0000C945E010C94EC020C94E9020C94DD0279
:1000F0000C9412030C94C0010C94AE030C941803DE
:100100000C9400030C949E010C94AD030C946101BB
:100110000C94D7030C94F8010C94B2010C949B0638
:100120000C94C6020C94FC020C9462010C941C0307
:100130000C94F2020C9404040C940E030C9404032B
:100140000C948F010C9445020C9460010C94E10214
:100150000C94F6020C94BD030C940A030C94CB028D
:100160000C94E5020C9433040C94D003000022009C
:10017000250028002B002E00310034000201000071
:10018000050108010B010505050507050808080814
:10019000020202020A0A080804040404010101011F
:1001A000010101010303030303030303040707071A
:1001B0000C0C0C0C0C0C0C0C0202020206060606BF
:1001C000060606060B0B0B0B0B0B0B0B010210208C
:1001D000200808102040102040800201020108047D
:1001E0000201010204081020408080402010080411
:1001F000020180040201804020100804020108046A
:1002000002010102040810204080010204081020AD
:10021000408000000A0B02090C0D0E0807030401C0
:1002200000000000000000000000000000000000CE
:10023000000000000000000000000000000012119B
:10024000100000000000000000000000000000009E
:1002500000000000000000009B0611241FBECFEF2D
:10026000D1E2DEBFCDBF00E00CBF12E0A0E0B2E003
:10027000EAE0F2E100E00BBF02C007900D92A63C5D
:10028000B107D9F724E0A6ECB2E001C01D92A23379
:10029000B207E1F711E0CDE2D1E000E006C021971E
:1002A0000109802FFE010E94FB08CC32D10780E0BB
:1002B0000807A9F70E94D4060C9403090C940000C7
:1002C00008950895AF92BF92CF92DF92EF92FF927E
:1002D0000F931F93CF93DF936C017B018B01040F6E
:1002E000151FEB015E01AE18BF08C017D10759F00A
:1002F0006991D601ED91FC910190F081E02DC6014C
:100300001995892B79F7C501DF91CF911F910F9135
:10031000FF90EF90DF90CF90BF90AF900895FC01D9
:10032000538D448D252F30E0842F90E0821B930B5A
:10033000541710F0CF96089501970895FC01918D00
:10034000828D981761F0A28DAE0FBF2FB11D5D9603
:100350008C91928D9F5F9F73928F90E008958FEFA5
:100360009FEF0895FC01918D828D981731F0828D59
:10037000E80FF11D858D90E008958FEF9FEF0895B0
:10038000FC01918D228D892F90E0805C9F4F821B14
:1003900091098F739927089589E893E00E94C0011D
:1003A00021E0892B09F420E0822F0895FC01A48D1F
:1003B000A80FB92FB11DA35ABF4F2C91848D90E087
:1003C00001968F739927848FA689B7892C93A0896A
:1003D000B1898C91837080648C93938D848D9813F4
:1003E00006C00288F389E02D80818F7D8083089587
:1003F000EF92FF920F931F93CF93DF93EC0181E075
:10040000888F9B8D8C8D98131AC0E889F98980811B
:1004100085FF15C09FB7F894EE89FF896083E8894E
:10042000F98980818370806480839FBF81E090E040
:10043000DF91CF911F910F91FF90EF900895F62ECD
:100440000B8D10E00F5F1F4F0F731127E02E8C8D67
:100450008E110CC00FB607FCFACFE889F9898081AC
:1004600085FFF5CFCE010E94D601F1CFEB8DEC0FC9
:10047000FD2FF11DE35AFF4FF0829FB7F8940B8FC9
:10048000EA89FB8980818062CFCFCF93DF93EC0133
:10049000888D8823B9F0AA89BB89E889F9898C916C
:1004A00085FD03C0808186FD0DC00FB607FCF7CF28
:1004B0008C9185FFF2CF808185FFEDCFCE010E9428
:1004C000D601E9CFDF91CF91089580E090E0892BAC
:1004D00029F00E94CC0181110E94000080E090E090
:1004E000892B49F080E090E0892B29F00E940000E0
:1004F00081110E94000080E090E0892B49F080E0AB
:1005000090E0892B29F00E94000081110E940000D8
:1005100080E090E0892B49F080E090E0892B29F081
:100520000E94000081110C9400000895282F30E0F3
:10053000F901EE5EFD4F9491F901E453FE4F4491B1
:100540002A573E4FF9012491222309F435C09923FB
:1005500011F191509231F8F4E92FF0E08827EC5432
:10056000FD4F8F4F0C94FB08E502E902C602DD0245
:10057000E102CB02EC02F202F602FC0200030403E9
:100580000A030E03CB02120318031C0380918000A0
:100590008F7780938000E22FF0E0EE0FFF1FE45989
:1005A000FE4FA591B4918FB7F894EC91611148C0BA
:1005B00040954E234C938FBF0895809180008F7D8E
:1005C000E8CF80918000877FE4CF84B58F7784BDAA
:1005D000E2CF84B58F7DFBCF8091B0008F77809381
:1005E000B000D9CF8091B0008F7DF9CF809190007D
:1005F0008F7780939000CFCF809190008F7DF9CF3F
:1006000080919000877FF5CF8091A0008F778093B5
:10061000A000C1CF8091A0008F7DF9CF8091A00074
:10062000877FF5CF809120018F7780932001B3CF12
:10063000809120018F7DF9CF80912001877FF5CFB8
:100640004E2BB8CF3FB7F89480912F039091300391
:10065000A0913103B091320326B5A89B05C02F3F6E
:1006600019F00196A11DB11D3FBFBA2FA92F982FD8
:100670008827BC01CD01620F711D811D911D42E0D3
:10068000660F771F881F991F4A95D1F7089520910B
:100690000703260F3327331F21323105ECF4209155
:1006A0005F03FC0190E080E0243069F082E008956F
:1006B000A09107032191AC0149515D4FA40FB52FC3
:1006C000B11D2C930196861798F380910703680F4C
:1006D0006093070380E0089581E0089510925F031E
:1006E00081E080935E031092390361E084E10E940F
:1006F000960261E085E10E949602E9EBF0E08081DC
:100700008E7F808380818D7F808388E48093B80092
:1007100085E48093BC000895CF93DF9391E090939C
:10072000E6028823B9F0C091B800D091BA00809158
:10073000BC008A7B8093BC0060E084E10E9496024A
:1007400060E085E10E9496020E946E03D093BA0099
:10075000C093B800DF91CF9108950895E0913803D8
:1007600080913703E81730F4F0E0EA53FD4F8081C1
:1007700090E008958FEF9FEF089590913803809156
:1007800037032FEF3FEF981748F4E92FF0E0EA53D3
:10079000FD4F208130E09F5F90933803C901089599
:1007A0008091370390913803891B990B0895CF925C
:1007B000DF92EF92FF920F931F93CF93DF937C0111
:1007C000CB018A0120916503222389F0EB016B01A3
:1007D000C40ED51ECC15DD0569F06991D701ED91E8
:1007E000FC910190F081E02DC7011995F3CF642FA2
:1007F0000E944703C801DF91CF911F910F91FF9095
:10080000EF90DF90CF900895CF93DF931F92CDB7F5
:10081000DEB76983209165032223F9F020918803D4
:10082000203258F021E030E0FC013383228390E055
:1008300080E00F90DF91CF91089580916603E82FBB
:10084000F0E0E959FC4F998190838F5F80936603B4
:100850008093880381E090E0ECCF61E0CE010196C7
:100860000E944703F7CF90E080E00895FC010190DB
:100870000020E9F73197AF01481B590BBC0189E80B
:1008800093E00C9462018F929F92AF92BF920F936C
:100890001F93CF93DF93CDB7DEB7A1970FB6F89430
:1008A000DEBF0FBECDBF19A2423008F44AE08E0170
:1008B0000F5D1F4F842E912CB12CA12CA50194010A
:1008C0000E94D908E62FB901CA01EA30F4F4E05DCC
:1008D000D801EE938D01232B242B252B79F790E063
:1008E00080E0109719F0CD010E943604A1960FB652
:1008F000F894DEBF0FBECDBFDF91CF911F910F9156
:10090000BF90AF909F908F900895E95CE1CFCF9317
:10091000DF930E943604EC0184E292E00E943604E8
:100920008C0F9D1FDF91CF91089585ED8093BC00C2
:100930008091610390916203A0916303B09164037D
:100940000796A11DB11D23E0B695A79597958795AC
:100950002A95D1F72091BC0024FD03C010925F03BB
:100960000895409161035091620360916303709117
:100970006403452B462B472B69F30097A105B1056E
:1009800041F02AE22A95F1F700C00197A109B109C7
:10099000E1CF809160030C948C031F920F920FB6ED
:1009A0000F9211240BB60F922F933F934F935F93A7
:1009B0006F937F938F939F93AF93BF93EF93FF9327
:1009C00089E893E00E94D601FF91EF91BF91AF912A
:1009D0009F918F917F916F915F914F913F912F9157
:1009E0000F900BBE0F900FBE0F901F9018951F9287
:1009F0000F920FB60F9211240BB60F922F938F9375
:100A00009F93EF93FF93E0919903F0919A03808174
:100A1000E0919F03F091A00382FD1DC09081809121
:100A2000A2038F5F8F732091A303821741F0E0919F
:100A3000A203F0E0E757FC4F958F8093A203FF914C
:100A4000EF919F918F912F910F900BBE0F900FBE42
:100A50000F901F9018958081F2CF1F920F920FB6C2
:100A60000F9211242F933F938F939F93AF93BF9334
:100A700080912B0390912C03A0912D03B0912E0314
:100A800030912A0323E0230F2D3758F50196A11D3D
:100A9000B11D20932A0380932B0390932C03A093E2
:100AA0002D03B0932E0380912F0390913003A091DA
:100AB0003103B09132030196A11DB11D80932F0324
:100AC00090933003A0933103B0933203BF91AF9161
:100AD0009F918F913F912F910F900FBE0F901F907C
:100AE000189526E8230F0296A11DB11DD2CF1F92A3
:100AF0000F920FB60F9211240BB60F922F933F93C4
:100B00004F935F936F937F938F939F93AF93BF9315
:100B1000EF93FF938091B900887F803609F44DC030
:100B200008F040C0883209F4A9C028F5803109F4E2
:100B30009DC0C8F4882309F4FBC0883009F496C02E
:100B4000FF91EF91BF91AF919F918F917F916F91A5
:100B50005F914F913F912F910F900BBE0F900FBE61
:100B60000F901F901895883109F488C0803241F7A2
:100B700080935D0314C0803409F49DC040F4803339
:100B8000B9F38833E9F680935D0385ECB0C0803516
:100B900009F485C0883509F496C0883489F60E9426
:100BA0009504CECF883909F48CC038F5883729F000
:100BB00050F4883611F0803719F683E080935F0394
:100BC0001092290357C0883809F47BC0803919F086
:100BD000803809F0B5CF80912903803208F071C0C8
:100BE000E091290381E08E0F809329038091BB005F
:100BF000F0E0E75FFC4F80833DC0803B39F0E0F4DC
:100C0000803A09F479C0883A09F09ACF84E0809359
:100C10005F031092080310920703E0913503F091EF
:100C2000360319958091070381110FC081E08093ED
:100C300007031092E70209C0803C09F4A6CF883C64
:100C400009F4A3CF883B09F07BCFE091080381E052
:100C50008E0F80930803F0E0E951FD4F808180936F
:100C6000BB00909108038091070329C080913A034B
:100C70008093BB0085EC8093BC0062CF90915C03B5
:100C800080915B03981758F5E0915C0381E08E0F2B
:100C900080935C03F0E0E55CFC4F8081E9CFE0915C
:100CA0005C0381E08E0F80935C038091BB00F0E0D9
:100CB000E55CFC4F808390915C0380915B03981707
:100CC000C8F285E8D8CFE0915C0381E08E0F809375
:100CD0005C038091BB00F0E0E55CFC4F8083809179
:100CE0005E0381115CCF81E08093390384EA8093B5
:100CF000BC0010925F0324CF85EC8093BC0010925F
:100D00005F0380912903803230F4E0912903F0E001
:100D1000E75FFC4F10826091290370E0E09133039C
:100D2000F091340389E093E019951092290308CFDC
:100D300010925D0334CFE9E8F3E01382128288EE6B
:100D400093E0A0E0B0E084839583A683B78324E09A
:100D500032E03183208325EC30E03587248724EC92
:100D600030E03787268720EC30E0318B208B21EC78
:100D700030E0338B228B22EC30E0358B248B26EC59
:100D800030E0378B268B118E128E138E148EE6E296
:100D9000F4E01382128284839583A683B78386E16D
:100DA00092E0918380830895789484B5826084BDB5
:100DB00084B5816084BD85B5826085BD85B581605F
:100DC00085BD80916E00816080936E0010928100DD
:100DD0008091810082608093810080918100816098
:100DE0008093810080918000816080938000809159
:100DF000B10084608093B1008091B00081608093E5
:100E0000B000809191008260809391008091910068
:100E10008160809391008091900081608093900028
:100E20008091A10082608093A1008091A1008160E7
:100E30008093A1008091A00081608093A0008091A8
:100E40002101826080932101809121018160809342
:100E500021018091200181608093200180917A009E
:100E6000846080937A0080917A00826080937A0017
:100E700080917A00816080937A0080917A00806806
:100E800080937A001092C1001092380310923703B9
:100E900010926603109288030E946E0380E691E030
:100EA000909336038093350381E691E09093340369
:100EB00080933303E0919903F0919A0382E0808359
:100EC000E0919503F09196031082E0919703F091E1
:100ED00098038FEC80831092A103E0919D03F09121
:100EE0009E0386E08083E0919B03F0919C038081C8
:100EF00080618083E0919B03F0919C0380818860F6
:100F00008083E0919B03F0919C03808180688083C3
:100F1000E0919B03F0919C0380818F7D808387E229
:100F200092E00E94870401E025EE822E35EC932E9C
:100F300042E0A42EBB24BA9484E392E00E9487048A
:100F4000C12CD12C7601C394D0E0C0E01C2D0093BD
:100F50006503C092870310926603109288030E9473
:100F600022032B013C0180915F03811162C0A0929A
:100F70005F0300935E03B0925D0310925C031092D6
:100F80005B0310923A0390913A03812F880F892BCB
:100F900080933A0380913903813009F0C8C01092E0
:100FA00039030E9422032B013C0180913A03809374
:100FB000BB008091610390916203A0916303B091A3
:100FC0006403892B8A2B8B2BA1F00E942203209192
:100FD000610330916203409163035091640364198B
:100FE000750986099709261737074807590708F42E
:100FF00041C08091BC0083FDD8CF9092BC000E947C
:1010000022032B013C0180915F03823009F492C0DE
:1010100080915D038F3F09F4AFC080915D03803202
:1010200009F4ACC080915D03803309F4A9C084E069
:1010300026C08091610390916203A0916303B091F7
:101040006403892B8A2B8B2B09F48DCF0E942203FA
:1010500020916103309162034091630350916403D6
:10106000641975098609970926173707480759072C
:1010700008F079CF809160030E948C0385E0109284
:101080006603109288031092650381117BC082E48D
:1010900092E00E943604103120F48CE692E00E9427
:1010A000360440E1C701B6010E9443048EE692E097
:1010B0000E94870421962FEFC21AD20AE20AF20A8E
:1010C0008FE7C816D104E104F10409F03FCF87E9A6
:1010D00092E0CD2B11F08DEB92E00E9487040E94EC
:1010E00022036B017C0188EE482E83E0582E612C90
:1010F000712C0E9422036C197D098E099F09683E9C
:10110000734081059105A8F321E0421A5108610856
:10111000710888EEC80E83E0D81EE11CF11C411452
:1011200051046104710429F70E94650205CF809281
:10113000BC0065CF8091610390916203A09163032D
:10114000B0916403892B8A2B8B2B09F45CCF0E940E
:101150002203209161033091620340916303509117
:101160006403641975098609970926173707480724
:10117000590708F048CF7ECF80E081CF82E07FCF53
:1011800083E07DCF843009F096CF82E792E00E9421
:101190003604103120F48CE692E00E94360440E1DF
:1011A000C701B6010E94430484E292E00E94360423
:1011B00082CFA1E21A2EAA1BBB1BFD010DC0AA1FE4
:1011C000BB1FEE1FFF1FA217B307E407F50720F0B0
:1011D000A21BB30BE40BF50B661F771F881F991F2B
:1011E0001A9469F760957095809590959B01AC0174
:1011F000BD01CF010895EE0FFF1F881F8BBF079021
:0A120000F691E02D1994F894FFCF49
:10120A0000000000F80162018F014502C0019E0141
:10121A00B201000000000404D7033304AD03D00375
:10122A00BD03AE030D0A000A493243205363616EBF
:10123A006E657200457363616E65616E646F2E2E12
:10124A002E00446973706F73697469766F20656ED6
:10125A00636F6E747261646F20656E206C612064C6
:10126A006972656363696F6E2030780030002020F0
:10127A0021004572726F7220646573636F6E6F63CB
:10128A0069646F20656E206C6120646972656363AE
:10129A00696F6E203078004E696E67756E206469DA
:1012AA0073706F73697469766F2049324320656E73
:1012BA00636F6E747261646F7321200A00486563FC
:0612CA00686F200A00001D
:00000001FF
